:2000000000802020FF270000F7270000F727000000000000000000000000000000000000BE
:20002000000000000000000000000000F72700000000000000000000F7270000F727000066
:20004000F72700006D020000F7270000F7270000F7270000F7270000F7270000F72700005F
:2000600000000000F7270000F72700000000000000000000F7270000F7270000F7270000EA
:20008000B90F0000F7270000F7270000F7270000F7270000F7270000000000000000000002
:2000A000F7270000F72700000000000000000000F727000000000000F7270000F7270000AA
:2000C00080B590B00E200821029102F0E7F863480E900421069102F05FF902990F2002F0E5
:2000E000DDF802990E9802F057F900230793019301200A90C00408900090022004900321D6
:2001000003911A4601F0FCFC0399079B089801930090052005901A4601F0F2FC049802F079
:20012000A1F8059802F09EF8079A089B00923020114601F05BFD312002F05EF90A9802F00D
:200140005BF9079802F058F925200D9002F054F9352002F051F92A2002F04EF92C2002F0F6
:200160004BF9079A089B00923620114601F03EFD079A089B00922420114601F037FD079A55
:20018000089B00923A20114601F030FD079A089B00923B20114601F029FD079A089B0092E6
:2001A0001E20114601F022FD079A089B00921B20114601F01BFD079A089B00921A201146C2
:2001C00001F014FD079A089B00920C20114601F00DFD079A089B00920B20114601F006FD7D
:2001E0000698079A089B0092114601F0FFFC079A089B00922B20114601F0F8FC079A089BA7
:2002000000923720114601F0F1FC15480B901549099102F007FA09990B9802F0BDF80A994E
:200220000B98890702F048F80B981521890402F01FF90B980C490C9102F006F80B980C991C
:2002400002F01EF80D990E9849040F9102F0EAF90E980F9902F0A0F810B080BD00200A4049
:2002600000000A40030001010080000E80B584B041480290414902F0A7F801460298404A97
:20028000039211600321890602F09EF8014603983C4A1160C0788007002813D5FFE701206E
:2002A000C103354802F08AF9002805D1FFE736490868401E086004E033490868401C08605B
:2002C000FFE719E02E4840780006002813D5FFE701204106284802F071F9002805D1FFE7FD
:2002E00029490868401C086004E027490868401E0860FFE7FFE7FFE72248C078400700280B
:2003000013D5FFE70120C1061B4802F057F9002805D1FFE71D490868401E086004E01B49BA
:200320000868401C0860FFE719E01648C0780007002813D5FFE7012081060F4802F03EF9EF
:20034000002805D1FFE711490868401C086004E00E490868401E0860FFE7FFE7FFE70648BA
:200360000190064901F062FF01980321890601F05DFF04B080BDC04600000A4000800002EF
:20038000E4042020E8042020CC042020D0042020B0B58AB004460E9809AD2C7008AC2170BF
:2003A00007A90A7006AA137005AA1070089801AA107007982038087003A900200870FFE74D
:2003C00003A8007806A90978884264DAFFE706A800780C280CD1FFE707A800780C214143E7
:2003E0002F48401803A90978405C04A908700AE007A8007801012948401803A90978405C9B
:2004000004A90870FFE702A900200870FFE702A80078072839DCFFE704A80078000600280A
:2004200009D5FFE709A8007808A9097805AA127800F050FF0AE009A8007808A9097805AA31
:20044000127853425A4100F045FFFFE70498400004A908700898411C08A80170007801A987
:200460000978401A06A90978884208D1FFE7019808A908700998401C09A9087005E0FFE734
:200480000298401C02A90870C1E7FFE70398401C03A9087094E70AB0B0BDC04608280000C2
:2004A000F82D000080B58EB00D900C910D9801281DDBFFE701200A90C1043B480B9001F02F
:2004C000BFFF0A990B98490402F098F80D98012803DBFFE70D98099003E00D9840420990D6
:2004E000FFE709993148002202F03CF91CE00120079041042C48089001F0A2FF07990898DB
:20050000C90402F07BF80D98012803DBFFE70D98069003E00D9840420690FFE7069923484C
:20052000002202F01FF9FFE70C9801281DDBFFE70120049001061E48059001F081FF049939
:200540000598090402F05AF80C98012803DBFFE70C98039003E00C9840420390FFE70399C7
:200560001248012202F0FEF81CE00120019001040F48029001F064FF01990298090602F0F1
:200580003DF80C98012803DBFFE70C98009003E00C9840420090FFE700990448012202F0E8
:2005A000E1F8FFE70EB080BD00200A400020864000000A40F0B5394A8218394BC0183A4D42
:2005C0004C790B79002C22D0466F202B02D00524E70100E0354F2E40002B00D188273E43D3
:2005E0004667846F2C403C438467446B2D4E34404463846B34408463002444658465546884
:200600008F26F643344054609468344094600C688979202B09D006467036002B15D1641E41
:200620004460C46E2C40882715E0641E4460C46E2C401E4E3443C466046F2C403443046742
:200640001B4D01246707064607E00527FF0164084460C46E2C403C43C46634682C403C4362
:200660003460C46A0F4D2C40C462046B2C4004630024C4640465C46F8F25ED432C40C46725
:2006800014682C401460194302680A4B1340BD220A40D118891C0160F0BDC0468418000029
:2006A000041800008888FDFF24493E0001040000FFFFFFCF4000FFCF80B58CB000200B905C
:2006C0000A9001F09FFC324801F056FF0120089001F0AEFC089801F0C1FC1020099001F0D8
:2006E000A7FC099801F0BAFC00F046FA01F008FBFFE7284801902848009028482849294AB0
:200700000292294B049300F07FFB00F0D5F827490870274A00210391084600F0B5FF029879
:200720000399425E64205043C217520D8018C2120C2007900090102005900423069300F0FA
:2007400089FA039805991B4A00F09EFF03990498415E0A204843A42101F0A6F90599069BCB
:20076000024607980090084600F074FA00F010FF01204105104801F016FF002803D1FFE7B0
:2007800001F0AAFF02E001F09DFFFFE7B1E7C04600208640F6042020F4042020EC04202044
:2007A000EE042020F0042020F2042020F8042020B9320000B632000000200A40B0B53A4A3B
:2007C00080184A6842600A78222A56D8930001A4E3589F46710800007B0800007108000064
:2007E0007B0800007B0800007B0800007B0800007B0800007B0800007B0800007B080000E1
:200800007B0800007B0800007B0800007B0800007B080000610800007B08000061080000F4
:200820007B0800007B0800007B0800007B0800007B0800007B0800007B0800007B080000A0
:200840007B0800007B0800007B0800007B0800007B080000610800007B08000061080000B4
:20086000036803242407A343012464071B1903E0036803242407A34303600B69C360CB685E
:20088000C46A0A4D25400A4C1C402B19C3620368084C1C400460097A114302683F239A4354
:2008A000194051180160B0BD041800008888FDFF777702007F00FFFF80B582B001A90020E2
:2008C000087001208103384801F062FE002806D0FFE701980121084301A90870FFE7012017
:2008E000C102314801F054FE002806D0FFE701980221084301A90870FFE7012081022A4870
:2009000001F046FE002806D0FFE701980421084301A90870FFE72448022101F039FE0028CE
:2009200006D0FFE701980821084301A90870FFE71D48012101F02CFE002806D0FFE70198C7
:200940001021084301A90870FFE701208107174801F01EFE002806D0FFE7019820210843F5
:2009600001A90870FFE7012081040F4801F010FE002806D0FFE701984021084301A9087028
:20098000FFE701204106084801F002FE002806D0FFE701988021084301A90870FFE701A8AE
:2009A000007802B080BDC04600200A4000000A4080B588B007A900200290087001F098FC4A
:2009C0000298012109050322520401F083FC0298039001F0B7FEFFE701F0ACFE00280CD109
:2009E000FFE72B4801F0F6FE0398401C03900398422801D3FFE700E0EEE701F0D9FE05905E
:200A00000120010502040020019001F063FC0198039001F097FEFFE701F08CFE00280CD190
:200A2000FFE71B4801F0D6FE0398401C03900398422801D3FFE700E0EEE701F0B9FE06906C
:200A400005997D20C0004843069901F039F90490049801F0C9FB00220E4B00F0BBFF00281C
:200A60000FD0FFE7049801F0BFFB0022D2430A4B00F092FF002804D0FFE707A90120087032
:200A8000FFE707A800780121084008B080BDC046D10300000079A340FF96A340F0B584B063
:200AA0003049314A0125AC0316682B0203939E4316600E68264205D10E68264202D10E68FA
:200AC0002642F6D06C02467E9769AF432E40BD1995612025455DD6690327BE433D4075192E
:200AE000D561224D2E680727374005262E60466A33681362736853622F60C3695B065B0C8A
:200B0000D5697F263602B543EB18D361E8C8009707680197476802971B071B0B2D03ADB21E
:200B2000ED1833071B0D007A009E35431D43019B1D43029B1D43054390690D4B03400D4834
:200B40002840C01890611068039B184310600868204205D10868204202D108682042F6D09E
:200B600004B0F0BD04020B4008010B40001340408D00F0FF72FF0F0080B582B0AE2000218A
:200B8000019100F09BFE782001F00CFA0199D52000F094FE0199502000F090FE0199A820B0
:200BA00000F08CFE01993F2000F088FE0199D32000F084FE0199084600F080FE01994020FD
:200BC00000F07CFE01998D2000F078FE0199142000F074FE0199202000F070FE01990220DA
:200BE00000F06CFE0199A12000F068FE0199C02000F064FE0199DA2000F060FE0199122070
:200C000000F05CFE0199812000F058FE0199EF2000F054FE0199D92000F050FE0199F120A2
:200C200000F04CFE0199DB2000F048FE0199302000F044FE0199A42000F040FE0199A620A7
:200C400000F03CFE0199AF2000F038FE00F0CCFE02B080BDB0B58CB0044610980BAD2C704B
:200C60000AAC2170099208A90B7007A9087004A90020087006A90870FFE706A8007808A915
:200C80000978884252DAFFE70998029008990698C0434018C1B20A20039001F09BF901462E
:200CA000029801F00DF8039901F00AF805A8017004A80078002822D1FFE706A8007808A9FB
:200CC0000978491E88421ADAFFE705A80078002810D1FFE70B9807A90B785A080699514309
:200CE00040180AA9097801220092C0B22022FFF74FFB16E004A901200870FFE7FFE70B9814
:200D000007A90B785A080699514340180AA90978059A303201240094C0B2D2B2FFF738FBA6
:200D2000FFE70698401C06A90870A6E70CB0B0BD80B586B005A9087003A900200870304AA7
:200D4000116801239943116004A90870FFE704A80078072826DCFFE701F041FD2948029031
:200D6000022101F079FB01F03AFD02980399490003AA1170012101F02CFC002806D0FFE7F7
:200D800003980121084303A90870FFE71D48022101F03EFC01F023FDFFE70498401C04A9F2
:200DA0000870D4E705A80078002806D0FFE71449086801229043086008E0114A10680121EF
:200DC000084310600F4801F023FCFFE701F007FD0C4800900221019101F03EFB01F0FFFC67
:200DE0000098019901F014FC01F0F9FC0449086801229043086003A8007806B080BDC046A3
:200E000004000A4000000A4010B588B00B9C0A9C07900691059204933B2000F090FF03A90E
:200E2000009108703C2000F08AFF02A9019108700398000209784018079908803D2000F034
:200E40007EFF009908703E2000F079FF019908700398000209784018069908803F2000F040
:200E60006EFF00990870402000F069FF01990870039800020978401805990880432000F03B
:200E80005EFF00990870442000F059FF01990870039800020978401804990880452000F036
:200EA0004EFF00990870462000F049FF0199087003980002097840180A990880472000F02C
:200EC0003EFF00990870482000F039FF0199087003980002097840180B99088008B010BDFB
:200EE000FCB40127FF07794002E0FCB40127FF070C024D002D0E03D1002C52D1FCBC704773
:200F00003C43FF2D50D0A408002900D56442020243001B0E04D1002A43D10800FCBC7047BC
:200F20003A43FF2B41D09208002800D552425E1B04D5170022003C0076422B00192E06D502
:200F400027003741D2191C27F71B7F42BC40002A27D002D55242012700E00027013B5200AC
:200F6000FCD51500802635400FD01500202635402C43803208D21500402635402C4304D192
:200F800001263602B24300E05B1C5200023308DDFF2B0BD2500ADB051843FF073843FCBC65
:200FA00070470020FCBC70470800C70FFF07FF20C0053843FCBC704710B586B0264801F0DF
:200FC00095FB002845D0FFE724490868244A1060244A10684042244B18600020106008605C
:200FE0002248006800282ED0FFE72148019000681B49096800F0AAF80146019849421D4C76
:201000000594216000681849096800F001F94042194904910860206818490291184A03923E
:2010200000F074FF0299039A034604982360006800F06CFF0499024605980A600068096825
:20104000FFF730FA04E000210846FFF72BFAFFE7FFE706B010BDC04600400840CC04202015
:20106000DC042020D0042020E0042020FC04202008052020D4042020D8042020C1E0FFFFB8
:201080003F1F000080B58AB009A9087008A900200870FFE708A8007807282FDCFFE709A831
:2010A00000780006002806D5FFE72649086801229043086008E0234A1068012108431060E2
:2010C000214801F0A5FAFFE701F089FB1E4805900221069101F0C0F901F081FB05980699B4
:2010E00001F096FA0998400009A9087001F077FBFFE70898401C08A90870CBE7114908687A
:20110000012201929043086001F069FB0E4803900221029101F0A0F901F061FB01990398DE
:2011200001F057FA029902460398531E9A4107AB04931A7001F06CFA01F051FB0498007828
:201140000AB080BD04000A4000000A4080B58CB00B900A910B980A99401A0990244800684C
:20116000049009980190234907910968401A00F023FE0146019803911F490968029100F0F9
:201180001BFE0146029800F07BF9039902460498059200F075F90599FFF7A7FE069017484E
:2011A0000890006800F008FE0699FFF79EFE00F05DFE079A01460898016009991160006859
:2011C0000F49884204DBFFE70C49104808600AE00A4800680B49884204DCFFE707490A48E9
:2011E0000860FFE7FFE7054800680CB080BDC04600052020C004202004052020BC04202075
:20120000591B0000A7E4FFFFA8E4FFFF581B000080B58CB00B900A910B980A99401A0990F4
:2012200024480068049009980190234907910968401A00F0C1FD0146019803911F4909684A
:20124000029100F0B9FD0146029800F019F9039902460498059200F013F90599FFF745FE88
:20126000069017480890006800F0A6FD0699FFF73CFE00F0FBFD079A0146089801600999A4
:20128000116000680F49884204DBFFE70C49104808600AE00A4800680B49884204DCFFE7F1
:2012A00007490A480860FFE7FFE7054800680CB080BDC04600052020C8042020040520200A
:2012C000C4042020591B0000A7E4FFFFA8E4FFFF581B000086B0034605A8037004AB197035
:2012E00003A90A706A460021117000787F2805DCFFE704A80078402801DBFFE72DE004A988
:201300000878C2080720821A02AB1A700A78024001A90A700978411A0120884069460870B5
:2013200003A8007800280CD0FFE7009B05A80078C1000B48411802A80278885C1843885434
:201340000BE0009B05A80078C1000548411802A80278885C98438854FFE706B07047C04663
:201360000000202080B586B0059005981E49884203D3FFE71D480590FFE70599502048432A
:20138000059000200090049001F018FA014600980391029001A90870FFE701F00FFA0290D8
:2013A00002980399884204D9FFE701A901200870FFE701A80078002807D0FFE70398029905
:2013C000401A0B494018049004E003980299401A0490FFE704980599884201D3FFE700E0E7
:2013E000DBE706B080BDC0463433030033330300FFFFFF0080B584B01E491F48039000F0A8
:20140000BDFF03981D49FFF7D5F803980023019319461A4600F0B2FC019B03980093194674
:201420001A4601F09DF8019A0398114600F098FF019A0398114601F095F9019B039801214D
:201440000291009119461A4601F08AF80199029A039800F085FF0199029A039801F082F9B4
:20146000039801F01BF90398032101F021F904B080BDC046B032000000208640A832000069
:20148000FCB40127FF0706004E4001D4002600E03E00020243001B0E30D03A43FF2B30D0AA
:2014A0000C024D002D0E29D03C43FF2D29D05B194240504042404C4061404C4000B500F093
:2014C000B7FC20BCAE464240504042404C4061404C4025001400002C01D46400013B8034AE
:2014E00001D3013364087E3B08DDFF2B09D2BC43200ADB0518433043FCBC70470020FCBCB7
:201500007047FF20C0053043FCBC704770B582B0024601A80270009100214056002816D43A
:20152000FFE7002401A908570322D3431840174A805809578C07E50EFF24AC40A043009C58
:20154000A401E4B2AC402043194088501AE001A908780F24204008380322D34318400A4AF2
:201560008058002549578D07EE0EFF25B540A843009DAD01EDB2B5402843214008391940F5
:201580008850FFE702B070BD1CED00E000E400E080B584B003A900200870FFE703A800784B
:2015A00007282FDCFFE70398B030C0B20021019100F084F90199084600F080F901991020E3
:2015C00000F07CF9019802A90870FFE702A800787F2811DCFFE702A80078C1000A484018DB
:2015E00003A90978405C012100F068F9FFE70298401C02A90870E9E7FFE70398401C03A957
:201600000870CBE704B080BD00002020F8B5451C00780023082B32D02F78C2070CD16A7862
:201620000F241440E41C122C0BD102242E57F4B2002E08D4EE1C0EE06D1C4A1C0F701146F1
:201640001AE0AE1C08E02E1DED7800957F252C40009DED012C1912343D0112095219094D59
:20166000AA420ED0D243002C05D08D5C4F1C0D70641E3946F7E7354640085B1CCAE7284681
:20168000C5E7F8BDFF0F000080B586B005AB187004A801700392FFE70398007800282ED067
:2016A000FFE705A800787B2808DBFFE705A9002008700498103004A90870FFE704A8007862
:2016C0003B2808DBFFE705A90020087004A9087000F08AF9FFE705A80290007804A9097835
:2016E000039A1278012300930C23FEF751FE02990598083008700398401C0390CCE706B0BE
:2017000080BD704780B582B00020019000F004FF0120400200F07AFD019800F0F7FD01F092
:2017200001F800F09DFF1348FFF7B8F9FFE7FFF73FF900280FD1FFE700F092FF00F0A4FF0C
:20174000FFE701F02FF8012149020840884201D0FFE7F6E7EBE7102000F0E6FD00F08AFF2A
:201760000020009000F068FA00990120FFF7CEFE02B080BD6C320000FEB502930F46194D5B
:201780000024E143184E00973740019043422B46BB4101D20C4623E0084602990E40534216
:2017A000B54101D204461BE0134601990B433E431E43029D009E13D02B46334004D4019982
:2017C0008B1A3346AB4103E00199531A2B46B341044605DB51406E400E43701E8641344627
:2017E0002046FEBD0000F07FFFFFFF7F80B586B01348019000F00CFE1248029000F008FEAA
:201800001148039000F0A0FE1048049000F09CFE0F48059000F068FE019800F0C9FD0298AD
:2018200000F0C6FD039800F083FE049800F080FE059800F04DFE102000F0CCFF06B080BD29
:2018400000000A4000200A40002086400040084000000F40F8B50446164F174D0E462E4095
:201860000120009464423C46B4411AD31D405442AF4116D31046009C20433543054311D0E7
:201880000020C0431C460C400ED4009CA41A0C469C4106DB0098504059400143481E8141FE
:2018A0000846F8BD0020F8BD009C141B1C468C41F0DAF6E70000F07FFFFFFF7F80B586B059
:2018C00005AA107004A801700078411E8841800103A9087005984870FFE7104800F0ACFE4A
:2018E0004006002801D5FFE7F7E70C48029003A90222019200F0A8F8019B02983C21002252
:2019000000F026F9FFE7054800F096FE4006002801D5FFE7F7E706B080BDC04600000F40B1
:2019200080B584B015491648039000F038FC039803210191490200F01FFC039800F0A4FDF8
:201940000398012100F03EFC039800F07FFE0199039800F0D5FD03980721029100F0D0FB90
:2019600002990398090200F0B7FB039800F0A4FD039800F095FD04B080BDC046BC32000056
:2019800000000F4010B5FFF765FF002801D0002010BD012010BDC04610B5FFF75BFF0028C2
:2019A00001DB002010BD012010BDC04610B5FFF751FF002801DD002010BD012010BDC04678
:2019C00010B5FFF7D9FE002801DA002010BD012010BDC04610B5FFF7CFFE002801DC0020E4
:2019E00010BD012010BD704780B582B001A900200870FFE701A8007807281EDCFFE7694607
:201A000000200870FFE7684600787F280FDCFFE768460078C1000B48411801A802780020D4
:201A20008854FFE70098401C69460870EBE7FFE70198401C01A90870DCE7FFF7A9FD02B0E9
:201A400080BDC04600002020F0B581B0002A22D091235B01C3180F200402901E0090561E3F
:201A60000020DF6927421BD00F5C1F60864210D0DF69274211D00F187D781D60009D854289
:201A800007D0DD6925420AD0BD781D60C01C8242E7D1104604E0002002E0401C00E0801CCA
:201AA00080B201B0F0BD70471CB5002922D04C08002900D5494242105440002800D54042B1
:201AC00000230A00904201D95200FBE790425B41904200D3801A914201D25208F6E7190056
:201AE000002C00D54042640000D549420200080011001CBD01000020FFF703FE1CBD0000BA
:201B000010B584B0079C069C03900291019200930299019801430098014306980143079A64
:201B2000012003071A401143074A1143039A9300064A9950079BC006034003988100885817
:201B40001843885004B010BD800004000480424010B586B00192024601980592049103AAFF
:201B6000107002A803800598094940180499490012781143074A00F087FA059806494018A7
:201B800002990904C91D054A00F07EFA06B010BD10120000FF070000141200000700FF0F1A
:201BA00010B584B0069C039002910192009302990198014300980143069A012003071A40C5
:201BC0001143084A1143039A9300074A9950069BC00603400398810088581843885004B014
:201BE00010BDC046810004000480424010B584B0069C039002910192009302990198014328
:201C000000980143069A012003071A401143084A1143039A9300074A9950069BC0060340B5
:201C20000398810088581843885004B010BDC046810004000480424010B50E490E4A0123CB
:201C40005C0590600868204205D10868204202D108682042F6D010681B040343136008688E
:201C6000C00605D40868C00602D40868C006F6D510BDC04604020B4004010B4080B584B0DB
:201C80000D4A0392106801210291084310600B48019000F0BDFC00F0A2FD0198022100F0A8
:201CA000DBFB00F09CFD029A039908689043086000F095FD04B080BD04000A4000000A40D7
:201CC0001CB50A0017D000230124E407A04200D20400944201D95200FBE790425B41904233
:201CE00000D3801A914201D25208F6E719000200080011001CBD01000020FFF702FD1CBD9E
:201D000080B582B000F036F96B20012100F018F96C20002100F014F91920092100F010F989
:201D20001A20062100F00CF91B201821019100F007F901991C2000F003F902B080BD80B571
:201D400084B003A90091087000F0ACF8D020FFF799F900980078FFF795F900F0A3F8D1207E
:201D6000FFF790F90120FEF7E3FF02A901910870FFF784FF0198007804B080BD10B586B0C1
:201D800001930B4601460198059104A90B8003AB1A8002AA10800598054C001909881B88F1
:201DA000194312881143034A00F082F906B010BD0418000080FF000006B49E22002802D48B
:201DC00004D106BC7047414204D400E00100013A4900FCD5803101D3013200E04900490AF0
:201DE000D2051143002802D50122D2071143080006BC704770B50A480A4C84420CD00A4D22
:201E00000A4EB54208D02A686968501C12789200A25890470835F4E7FFF745FE70BDC0465B
:201E2000E0320000D4320000E8320000F8320000FCB4020C0B0CFF242402FF342040214034
:201E40000C00444315005D4306005E430F005743320C3B0CA818C01832043B040025A1187A
:201E60006841C9186841FCBC7047000006B54100090E7F390DD41F22511A0CD986460002B5
:201E80000122D2071043C8407246002A00D5404206BD002006BD02000120C007002A00D424
:201EA000401E06BD80B582B0094A10680121084310600848019000F0ABFB00F090FC019866
:201EC000022100F0A5FB00F08AFC02B080BDC04604000A4000000A4080B582B00849094843
:201EE000019000F04BFA01980749FEF767FC0198012100F027FA019800F0D0FB02B080BDCC
:201F0000B3320000004008409432000084B002900191009202980099884203DDFFE7009849
:201F200003900AE002980199884203DAFFE70198039002E002980390FFE7039804B070473C
:201F400080B584B003AA0092107002A801900170FFF7A8FFD020FFF795F800980078FFF797
:201F600091F801980078FFF78DF8FFF787FE04B080BD000080B582B00120019000F030FAAD
:201F80000748022100F068FA0198002100914204C3040846FFF704FE00F021FC02B080BDE3
:201FA00000000A4080B582B0019000200090FFE700980749884208DCFFE70198FFF7D2F973
:201FC000FFE70098401C0090F2E702B080BDC046E703000083B002AA107001A80170012045
:201FE0000090FFE701AA1078411E1170002806D0FFE702A80078009948430090F2E700982D
:2020000003B0704780B5FFF7F1FBFEF759F8FFF779FBFFF7EFF9FFF75FFFFFF781FC00F0FA
:20202000A9FB0249B8220020885480BD0004202081B001466846017000214056002809D407
:20204000FFE7684601781F2001400120884002490860FFE701B0704780E200E081B001464F
:202060006846017000214056002809D4FFE7684601781F2001400120884002490860FFE776
:2020800001B0704700E100E084B00390029101920398006800900098019988430090009872
:2020A0000299019A114008430399086004B0704784B00390029101920398006800900098C7
:2020C00001998843009000980299019A114008430399086004B0704780B584B001910146F0
:2020E0000198039102A908800398044A8018098807221202FFF7DCFF04B080BD3812000025
:2021000080B584B0019101460198039102A908700398044A801809780722FFF7C9FF04B090
:2021200080BDC0463812000081B000900549042008600098401E04490860044900200860F7
:2021400001B0704710E000E014E000E018E000E0084880F30888FFF746FC00F052FB0028AB
:2021600001D0FFF747FE0020FEF7A6FA012000F03FFBC0460080202080B584B0019101464B
:202180000198039102A908800398092252028018098803225202FFF78BFF04B080BD70B58D
:2021A0000122120383180C785D680C26B54334402C195C60497883580724A34321405918E5
:2021C000815070BD80B584B0019101460198039102A9087003980922520280180978072213
:2021E000FFF766FF04B080BD002801D10021704704B4042212021F320100521E4900FCD3F5
:202200000805090B1205114304BC704780B582B0014601A8018001880F2002020248FFF7E7
:2022200047FF02B080BDC04604010B4082B001900091009B0199034A88581843885002B078
:202240007047C0464810000082B001900091009B0199034A88581843885002B07047C04611
:202260004810000081B0009000988100034A885801235B061843885001B0704704804240D9
:2022800082B001900091009B0199034A88581843885002B07047C0462810000082B00190EB
:2022A000009100988021084301998900014A885002B070470480424082B001900091009B65
:2022C0000199034A88581843885002B07047C046901300000843104304490A683F231B0414
:2022E0009A431840101808607047C04638010B4080B582B0019001991F2002060248FFF7BF
:20230000D7FE02B080BDC04638010B4080B582B0014601A80170017802480322FFF7C8FE03
:2023200002B080BD00010B4080B582B0014601A80170017802483022FFF7BAFE02B080BDE8
:2023400004010B4082B001900091009B0199034A88581843885002B07047C046281000009D
:2023600010B592008018044A83580724A404A34321405918815010BD3018000010B50122EC
:20238000120383180C789C604B7883508978014A815010BD0C11000082B001900091009884
:2023A0000199024A885002B07047C046D012000081B0009000990120C2020248885001B0FC
:2023C0007047C0460100002682B0019000910198024940580099084002B0704738100000B7
:2023E00081B0009000988100024A8120885001B07047C0460480424081B0009000988100F0
:20240000024A8120885001B07047C0460480424081B000900099024A0248885001B0704753
:2024200004080000030000B182B00190009100980199024A885002B07047C0469012000021
:2024400082B00190009100980199024A885002B07047C0469012000082B0019000910098D5
:202460000199024A885002B07047C0469012000082B001900091009B01999D204201885824
:202480001843885002B0704781B00090009909204202885801231B021843885001B070471D
:2024A00081B000900099034A885801231843885001B070472812000081B000900099034AF5
:2024C000885804231843885001B070472812000081B0009000990120C2020248885001B00E
:2024E0007047C0460100002681B000900099024A0248885001B0704704080000030000B108
:2025000082B001906846017000780199014A885002B070472412000081B00146684601706E
:2025200000780249086001B07047C04608030B4081B0009000990120C2020248885001B09A
:202540007047C0460100002681B000900099024A0248885001B0704704080000030000B1A7
:2025600010B5029CA400001911431943014A815010BDC0465018000081B000900099034A8D
:20258000885801231843885001B070470418000082B00190009101982721C9014058009950
:2025A000084002B0704782B00190009101982721C90140580099084002B0704782B00190C6
:2025C000009101982721C90140580099084002B0704782B00190009101982721C901405846
:2025E0000099084002B0704782B0019000910098019995225201885002B0704782B00190FD
:2026000000910098019995225201885002B0704782B0019000910098019995225201885044
:2026200002B0704782B0019000910098019995225201885002B0704781B0009000980249BC
:20264000405801B07047C0461812000081B000900099024A0020885001B07047141200001E
:202660000349086801221202904308607047C04608010B400349086801221203104308606C
:202680007047C04604010B400349086801221202104308607047C04608010B4081B00090AD
:2026A0000099024A0120885001B070470811000082B0019000910098019911221202885016
:2026C00002B0704780B5012081050248FFF7ACFE80BDC04600200A4080B5012081050248F8
:2026E000FFF782FF80BDC04600200A4081B000900098812149014058C0B201B0704710B53A
:2027000000239A4203D0CC5CC4545B1CF9E710BD80B50B4603214258C11D184600F064F8B7
:2027200080BD000002490868012290430860704708010B4080B500F035F80121490608402D
:20274000400E80BD01490248086070472C030B400100000E0249086805221043086070475E
:2027600010E000E092008018014A81507047C0461018000080B501200006FFF7D5FCFFF745
:20278000E9FF80BD80B50A4603214158104600F01BF880BD00239A4202D0C1545B1CFAE7FE
:2027A00070470000014800687047C04604020B40014800687047C04650010B4001480068E8
:2027C0007047C04618E000E00A46002180B5FFF7E1FF80BD811E091F00BFFCD2704780B56B
:2027E0000320FEF7BFFD80BD80B5FFF788FF80BD00F003F8FEE7FFE7FEE700BF7047A7E43D
:08280000704701207047000041
:20280800000000000000000000000000000000000000000000001FCC000C000000000000B9
:2028280000000800300060000800300060000000022003FC1E20022003FC1E200220000080
:2028480000000E1811043FFF10840C78000000000F0010840F3800C00778188400780000A2
:2028680000780F8410C411240E9800E4008400080800680070000000000000000000000046
:2028880000000000000007E01818200440020000000040022004181807E000000000000036
:2028A8000240024001800FF001800240024000000080008000800FF8008000800080000000
:2028C8000001000D000E000000000000000000000000008000800080008000800080008054
:2028E8000000000C000C00000000000000000000000000060018006001800600180020007B
:20290800000007F0080810041004080807F000000000080408041FFC00040004000000003E
:2029280000000E0C10141024104411840E0C000000000C1810041104110412880C700000A2
:20294800000000E00320042408241FFC0024000000001F981084110411041088107000004C
:20296800000007F008881104110418880070000000001C00100010FC13001C001000000017
:2029880000000E3811441084108411440E38000000000700088C10441044088807F0000007
:2029A800000000000000030C030C00000000000000000000000101060000000000000000E9
:2029C8000000008001400220041008081004000002200220022002200220022002200000E6
:2029E8000000100408080410022001400080000000000E001200100C106C10800F0000005D
:202A080003E00C1813E4142417C4082807D000000004003C03C41C40074000E4001C0004E8
:202A280010041FFC1104110411040E880070000003E00C1810041004100410081C10000093
:202A480010041FFC100410041004080807F0000010041FFC1104110417C410040818000094
:202A680010041FFC1104110017C010000800000003E00C181004100410441C7800400000B3
:202A880010041FFC10840080008010841FFC10040000100410041FFC10041004000000003D
:202AA80000030001100110011FFE10001000000010041FFC110403801464181C1004000024
:202AC80010041FFC1004000400040004000C000010041FFC1F0000FC1F001FFC10040000FB
:202AE80010041FFC0C04030000E010181FFC100007F00808100410041004080807F000000F
:202B080010041FFC10841080108010800F00000007F0081810241024101C080A07F2000075
:202B280010041FFC1104110011C011300E0C000400000E1C11041084108410441C380000F9
:202B48001800100010041FFC100410001800000010001FF810040004000410041FF810005C
:202B680010001E0011E0001C007013801C0010001FC0103C00E01F0000E0103C1FC00000AE
:202B88001004180C163401C001C01634180C100410001C00130400FC13041C001000000025
:202BA8000804101C1064108413041C04101800000000000000007FFE40024002400200002B
:202BC800000030000C0003800060001C0003000000004002400240027FFE0000000000006C
:202BE8000000000020004000400040002000000000010001000100010001000100010001C5
:202C08000000400040002000000000000000000000000098012401440144014400FC000480
:202C280010001FFC0088010401040088007000000000007000880104010401040088000048
:202C48000000007000880104010411081FFC0004000000F8014401440144014400C800005E
:202C68000000010401040FFC1104110411001800000000D601290129012901C901060000BF
:202C880010041FFC008401000100010400FC000400000104190419FC000400040000000033
:202CA8000000000300010101190119FE0000000010041FFC0024004001B4010C010400007B
:202CC8000000100410041FFC0004000400000000010401FC0104010001FC0104010000FC9A
:202CE800010401FC008401000100010400FC0004000000F8010401040104010400F800003B
:202D0800010101FF00850104010400880070000000000070008801040104010501FF000119
:202D28000104010401FC00840104010001800000000000CC01240124012401240198000080
:202D480000000100010007F80104010400000000010001F8000400040004010801FC000450
:202D6800010001800170000C001001600180010001F0010C003001C00030010C01F001003B
:202D880000000104018C00740170018C01040000010101810171000E001801600180010023
:202DA80000000184010C013401440184010C0000000000000000000001003EFC40024002AE
:202DC8000000000000000000FFFF0000000000000000400240023EFC01000000000000002E
:202DE8000000600080008000400040002000200000000000000000000000000000000000AB
:202E08003F4000000000000000003000400030004000000009000BC03D000BC03D00090029
:202E280018C024407FE0224031800000180024C01B000D803240018003801C4027401C8063
:202E4800074000401000600000000000000000000000000000001F802040402000004020B4
:202E680020401F8000000000090006001F80060009000000040004003F80040004000000BF
:202E8800001000600000000000000000040004000400040004000000000000400000000066
:202EA80000000000002001C006003800400000001F802040204020401F80000000001040FD
:202EC8003FC000400000000018C02140224024401840000010802040244024401B80000001
:202EE80002000D0011003FC0014000003C80244024402440238000001F8024402440344004
:202F0800038000003000200027C03800200000001B802440244024401B8000001C0022C037
:202F2800224022401F8000000000000008400000000000000000000004600000000000007A
:202F4800000004000A001100208040400900090009000900090000000000404020801100CC
:202F68000A0004001800200023402400180000001F802040274029401F400000004007C02F
:202F880039000F0001C0004020403FC0244024401B8000001F8020402040204030800000AF
:202FA80020403FC0204020401F80000020403FC024402E4030C0000020403FC024402E0039
:202FC800300000000F001080204022403380020020403FC0040004003FC02040204020401D
:202FE8003FC02040204000000060202020203FC02000200020403FC024400B0030C02040CD
:2030080020403FC020400040004000C03FC03C0003C03C003FC0000020403FC00C402300A2
:203028003FC020001F802040204020401F80000020403FC024402400180000001F8021400C
:20304800214020E01FA0000020403FC02440260019C0004018C02440244022403180000093
:20306800300020403FC020403000000020003F80004000403F80200020003E0001C00700C5
:2030880038002000380007C03C0007C038000000204039C0060039C0204000002000384046
:2030A80007C0384020000000304021C02640384020C00000000000007FE04020402000007B
:2030C800000070000C000380004000000000402040207FE00000000000002000400020000A
:2030E8000000000000100010001000100010001000000000400000000000000000000280A6
:203108000540054003C0004020003FC004400440038000000000038004400440064000009F
:2031280000000380044024403FC00040000003800540054003400000000004401FC0244046
:2031480024402000000002E0055005500650042020403FC00440040003C0004000000440EF
:2031680027C000400000000000100010041027E00000000020403FC00140070004C0044036
:20318800204020403FC000400040000007C0040007C0040003C00000044007C0044004003C
:2031A80003C00040000003800440044003800000041007F0045004400380000000000380CD
:2031C8000440045007F00010044007C00240040004000000000006400540054004C000005F
:2031E800000004001F80044000400000040007800040044007C000400400070004C001803A
:2032080006000400060001C0070001C006000000044006C0010006C00440000004100710C7
:2032280004E00180060004000000044005C00640044000000000000004007BE040200000C5
:20324800000000000000FFF000000000000040207BE0040000000000400080004000200098
:203268002000400001000000000000000000000040000000000000000000000002000000A3
:2032880004000000010000002C00C44102000000D3300000010000000000000000000000EA
:1832A800401F00002000010008000008001F473A005A3A000800000042
:2032C00000FD000000CDCCCC3E000007803F1E00C0FFF0000D1600001127000085270000B4
:1832E00002000000F9040000C0320000FC042020E03200000000202053
:00000001FF
